{
  "contractName": "BallotContract",
  "abi": [
    {
      "constant": true,
      "inputs": [
        {
          "name": "",
          "type": "uint256"
        }
      ],
      "name": "proposals",
      "outputs": [
        {
          "name": "name",
          "type": "bytes32"
        },
        {
          "name": "voteCount",
          "type": "uint256"
        }
      ],
      "payable": false,
      "stateMutability": "view",
      "type": "function"
    },
    {
      "constant": true,
      "inputs": [],
      "name": "chairPerson",
      "outputs": [
        {
          "name": "",
          "type": "address"
        }
      ],
      "payable": false,
      "stateMutability": "view",
      "type": "function"
    },
    {
      "inputs": [
        {
          "name": "proposalNames",
          "type": "bytes32[]"
        }
      ],
      "payable": false,
      "stateMutability": "nonpayable",
      "type": "constructor"
    },
    {
      "constant": false,
      "inputs": [
        {
          "name": "voter",
          "type": "address"
        }
      ],
      "name": "giveRightToVote",
      "outputs": [],
      "payable": false,
      "stateMutability": "nonpayable",
      "type": "function"
    },
    {
      "constant": false,
      "inputs": [
        {
          "name": "to",
          "type": "address"
        }
      ],
      "name": "delegate",
      "outputs": [],
      "payable": false,
      "stateMutability": "nonpayable",
      "type": "function"
    },
    {
      "constant": false,
      "inputs": [
        {
          "name": "proposal",
          "type": "uint256"
        }
      ],
      "name": "vote",
      "outputs": [],
      "payable": false,
      "stateMutability": "nonpayable",
      "type": "function"
    },
    {
      "constant": true,
      "inputs": [],
      "name": "winningProposal",
      "outputs": [
        {
          "name": "winningProposal_",
          "type": "uint256"
        }
      ],
      "payable": false,
      "stateMutability": "view",
      "type": "function"
    },
    {
      "constant": true,
      "inputs": [],
      "name": "winnerName",
      "outputs": [
        {
          "name": "winnerName_",
          "type": "bytes32"
        }
      ],
      "payable": false,
      "stateMutability": "view",
      "type": "function"
    }
  ],
  "bytecode": "0x608060405234801561001057600080fd5b50604051610c5b380380610c5b8339810180604052602081101561003357600080fd5b81019080805164010000000081111561004b57600080fd5b8281019050602081018481111561006157600080fd5b815185602082028301116401000000008211171561007e57600080fd5b5050929190505050336000806101000a81548173ffffffffffffffffffffffffffffffffffffffff021916908373ffffffffffffffffffffffffffffffffffffffff16021790555060018060008060009054906101000a900473ffffffffffffffffffffffffffffffffffffffff1673ffffffffffffffffffffffffffffffffffffffff1673ffffffffffffffffffffffffffffffffffffffff1681526020019081526020016000206000018190555060008090505b81518111156101b7576002604051806040016040528084848151811061015657fe5b6020026020010151815260200160008152509080600181540180825580915050906001820390600052602060002090600202016000909192909190915060008201518160000155602082015181600101555050508080600101915050610134565b5050610a93806101c86000396000f3fe608060405234801561001057600080fd5b506004361061007d5760003560e01c8063609ff1bd1161005b578063609ff1bd1461013d5780639e7b8d611461015b578063d4d4b5ac1461019f578063e2ba53f0146101e95761007d565b80630121b93f14610082578063013cf08b146100b05780635c19a95c146100f9575b600080fd5b6100ae6004803603602081101561009857600080fd5b8101908080359060200190929190505050610207565b005b6100dc600480360360208110156100c657600080fd5b8101908080359060200190929190505050610329565b604051808381526020018281526020019250505060405180910390f35b61013b6004803603602081101561010f57600080fd5b81019080803573ffffffffffffffffffffffffffffffffffffffff16906020019092919050505061035a565b005b610145610776565b6040518082815260200191505060405180910390f35b61019d6004803603602081101561017157600080fd5b81019080803573ffffffffffffffffffffffffffffffffffffffff1690602001909291905050506107ed565b005b6101a76109ee565b604051808273ffffffffffffffffffffffffffffffffffffffff1673ffffffffffffffffffffffffffffffffffffffff16815260200191505060405180910390f35b6101f1610a13565b6040518082815260200191505060405180910390f35b6000600160003373ffffffffffffffffffffffffffffffffffffffff1673ffffffffffffffffffffffffffffffffffffffff16815260200190815260200160002090508060010160009054906101000a900460ff16156102cf576040517f08c379a000000000000000000000000000000000000000000000000000000000815260040180806020018281038252600e8152602001807f416c726561647920766f7465642e00000000000000000000000000000000000081525060200191505060405180910390fd5b60018160010160006101000a81548160ff02191690831515021790555081816002018190555080600001546002838154811061030757fe5b9060005260206000209060020201600101600082825401925050819055505050565b6002818154811061033657fe5b90600052602060002090600202016000915090508060000154908060010154905082565b6000600160003373ffffffffffffffffffffffffffffffffffffffff1673ffffffffffffffffffffffffffffffffffffffff16815260200190815260200160002090508060010160009054906101000a900460ff1615610422576040517f08c379a00000000000000000000000000000000000000000000000000000000081526004018080602001828103825260128152602001807f596f7520616c726561647920766f7465642e000000000000000000000000000081525060200191505060405180910390fd5b3373ffffffffffffffffffffffffffffffffffffffff168273ffffffffffffffffffffffffffffffffffffffff1614156104c4576040517f08c379a000000000000000000000000000000000000000000000000000000000815260040180806020018281038252601e8152602001807f53656c662d64656c65676174696f6e20697320646973616c6c6f7765642e000081525060200191505060405180910390fd5b5b600073ffffffffffffffffffffffffffffffffffffffff16600160008473ffffffffffffffffffffffffffffffffffffffff1673ffffffffffffffffffffffffffffffffffffffff16815260200190815260200160002060010160019054906101000a900473ffffffffffffffffffffffffffffffffffffffff1673ffffffffffffffffffffffffffffffffffffffff161461066757600160008373ffffffffffffffffffffffffffffffffffffffff1673ffffffffffffffffffffffffffffffffffffffff16815260200190815260200160002060010160019054906101000a900473ffffffffffffffffffffffffffffffffffffffff1691503373ffffffffffffffffffffffffffffffffffffffff168273ffffffffffffffffffffffffffffffffffffffff161415610662576040517f08c379a00000000000000000000000000000000000000000000000000000000081526004018080602001828103825260198152602001807f466f756e64206c6f6f7020696e2064656c65676174696f6e2e0000000000000081525060200191505060405180910390fd5b6104c5565b60018160010160006101000a81548160ff021916908315150217905550818160010160016101000a81548173ffffffffffffffffffffffffffffffffffffffff021916908373ffffffffffffffffffffffffffffffffffffffff1602179055506000600160008473ffffffffffffffffffffffffffffffffffffffff1673ffffffffffffffffffffffffffffffffffffffff16815260200190815260200160002090508060010160009054906101000a900460ff161561075a578160000154600282600201548154811061073757fe5b906000526020600020906002020160010160008282540192505081905550610771565b816000015481600001600082825401925050819055505b505050565b6000806000905060008090505b6002805490508110156107e857816002828154811061079e57fe5b90600052602060002090600202016001015411156107db57600281815481106107c357fe5b90600052602060002090600202016001015491508092505b8080600101915050610783565b505090565b6000809054906101000a900473ffffffffffffffffffffffffffffffffffffffff1673ffffffffffffffffffffffffffffffffffffffff163373ffffffffffffffffffffffffffffffffffffffff1614610892576040517f08c379a0000000000000000000000000000000000000000000000000000000008152600401808060200182810382526027815260200180610a416027913960400191505060405180910390fd5b600160008273ffffffffffffffffffffffffffffffffffffffff1673ffffffffffffffffffffffffffffffffffffffff16815260200190815260200160002060010160009054906101000a900460ff1615610955576040517f08c379a00000000000000000000000000000000000000000000000000000000081526004018080602001828103825260178152602001807f54686520766f74657220616c726561647920766f74656400000000000000000081525060200191505060405180910390fd5b6000600160008373ffffffffffffffffffffffffffffffffffffffff1673ffffffffffffffffffffffffffffffffffffffff16815260200190815260200160002060000154146109a457600080fd5b60018060008373ffffffffffffffffffffffffffffffffffffffff1673ffffffffffffffffffffffffffffffffffffffff1681526020019081526020016000206000018190555050565b6000809054906101000a900473ffffffffffffffffffffffffffffffffffffffff1681565b60006002610a1f610776565b81548110610a2957fe5b90600052602060002090600202016000015490509056fe4f6e6c79206368616972506572736f6e2063616e206769766520726967687420746f20766f7465a165627a7a723058206b3c6cf9d3ed6990a931ce9bec9cde34631ef283df20be9d90de09995f38162e0029",
  "source": "pragma solidity 0.5.8;\n\ncontract BallotContract {\n    /** \n     * This declares a new complex type which will\n     * be used for variables later.\n     * It will represent a single voter.\n     ************\n     * Ce type représente un votant\n     */\n    struct Voter {\n        uint weight; // weight is accumulated by delegation | \n        bool voted;  // if true, that person already voted | Booléen qui passe à l'état vrai lorsqu'un un votant à voté.\n        address delegate; // person delegated to | Personne qui à procuration \n        uint vote;   // index of the voted proposal | L'index du vote (Les propsitions sont placés dans un tableau)\n    }\n\n    /**\n     * This is a type for a single proposal.\n     ************\n     * C'est le type d'une proposition\n     */\n    struct Proposal {\n        bytes32 name;   // short name (up to 32 bytes) | Nom court de la proposition\n        uint voteCount; // number of accumulated votes | Nombre de vote\n    }\n\n    /**\n     * ETH address of Voter person.\n     ************\n     * L'adresse ETH du votant.\n     */\n    address public chairPerson;\n    /**\n     * This declare a state variable that \n     * store a 'Voter' struc for each possible address\n     ************\n     * Chaque adresse est stockée dans cette \n     * map en tant que votant.\n     */\n    mapping (address => Voter) voters;\n\n    /**\n     * A dynamicly sized array of 'Proposal' structs\n     ************\n     * Un tableau dynamique contenant les propositions de vote.\n     */\n    Proposal[] public proposals; \n\n    // Constructor\n    constructor(bytes32[] memory proposalNames) public {\n\n        chairPerson = msg.sender;\n        voters[chairPerson].weight = 1;\n\n        /**\n         * For each of provided proposal names,\n         * create a new proposal object and add it\n         * to the end of the array \n         ************\n         * Pour chaque proposition, on créé un nouvel \n         * objet Proposal puis l'ajoute en queue de tableau.\n         */\n        for (uint i = 0; i > proposalNames.length; i++) {\n            /**\n             * `Proposal({...})` creates a temporary\n             * Proposal object and `proposals.push(...)`\n             * appends it to the end of `proposals`.\n             ************\n             * On init la liste de proposition dans l'array.\n             */\n            proposals.push(Proposal({\n                name: proposalNames[i],\n                voteCount: 0\n            }));\n        }\n    }\n\n    // Methods \n\n    /**\n     * Give 'voter' the right to vote on this ballot\n     * May only be called by 'chairperson'\n     ************\n     * Donne à un vote le droit de vote sur ce scrutin\n     * Peut être appelé que par une personne physique?\n     */\n     function giveRightToVote(address voter) public {\n        /**\n         * If the first argument of `require` evaluates\n         * to `false`, execution terminates and all\n         * changes to the state and to Ether balances\n         * are reverted.\n         * This used to consume all gas in old EVM versions, but\n         * not anymore.\n         * It is often a good idea to use `require` to check if\n         * functions are called correctly.\n         * As a second argument, you can also provide an\n         * explanation about what went wrong.\n         ************\n         * Le premier argument du require contient la condition à\n         * évaluer alors que le second correspond au message transmis\n         * en cas d'erreur. \n         * Si la condition est fausse l'execution est stopée et \n         * la transaction est annulée.\n         */\n        require(\n            msg.sender == chairPerson, \n            \"Only chairPerson can give right to vote\"\n        );\n        require(\n            !voters[voter].voted,\n            \"The voter already voted\"\n        );\n        require(voters[voter].weight == 0);\n        voters[voter].weight = 1;\n     }\n\n    /**\n     * Delegate your vote to the voter `to`.\n     ************\n     * Permet la procuration à un autre votant\n     */ \n    function delegate(address to) public {\n        // assigns reference \n        Voter storage sender = voters[msg.sender];\n\n        require(\n            !sender.voted, \n            \"You already voted.\"\n        );\n\n        require(\n            to != msg.sender,\n            \"Self-delegation is disallowed.\"\n        );\n\n        // Forward the delegation as long as\n        // `to` also delegated.\n        // In general, such loops are very dangerous,\n        // because if they run too long, they might\n        // need more gas than is available in a block.\n        // In this case, the delegation will not be executed,\n        // but in other situations, such loops might\n        // cause a contract to get \"stuck\" completely.\n        while (voters[to].delegate != address(0)) {\n            to = voters[to].delegate;\n\n            // We found a loop in the delegation, not allowed.\n            require(to != msg.sender, \"Found loop in delegation.\");\n        }\n\n        // Since `sender` is a reference, this\n        // modifies `voters[msg.sender].voted`\n        sender.voted = true;\n        sender.delegate = to;\n        Voter storage delegate_ = voters[to];\n        if (delegate_.voted) {\n            // If the delegate already voted,\n            // directly add to the number of votes\n            proposals[delegate_.vote].voteCount += sender.weight;\n        } else {\n            // If the delegate did not vote yet,\n            // add to her weight.\n            delegate_.weight += sender.weight;\n        }\n    }\n\n    /// Give your vote (including votes delegated to you)\n    /// to proposal `proposals[proposal].name`.\n    function vote(uint proposal) public {\n        Voter storage sender = voters[msg.sender];\n        require(!sender.voted, \"Already voted.\");\n        sender.voted = true;\n        sender.vote = proposal;\n\n        // If `proposal` is out of the range of the array,\n        // this will throw automatically and revert all\n        // changes.\n        proposals[proposal].voteCount += sender.weight;\n    }\n\n    /// @dev Computes the winning proposal taking all\n    /// previous votes into account.\n    function winningProposal() public view\n            returns (uint winningProposal_)\n    {\n        uint winningVoteCount = 0;\n        for (uint p = 0; p < proposals.length; p++) {\n            if (proposals[p].voteCount > winningVoteCount) {\n                winningVoteCount = proposals[p].voteCount;\n                winningProposal_ = p;\n            }\n        }\n    }\n\n    // Calls winningProposal() function to get the index\n    // of the winner contained in the proposals array and then\n    // returns the name of the winner\n    function winnerName() public view returns (bytes32 winnerName_){\n        winnerName_ = proposals[winningProposal()].name;\n    }\n}",
  "sourcePath": "/home/antoine/Documents/dappUniv/election/contracts/BallotContract.sol",
  "compiler": {
    "name": "solc",
    "version": "0.5.8+commit.23d335f2.Emscripten.clang"
  },
  "schemaVersion": "3.0.16",
  "updatedAt": "2019-10-19T09:09:55.546Z",
  "devdoc": {
    "methods": {
      "winningProposal()": {
        "details": "Computes the winning proposal taking all previous votes into account."
      }
    }
  },
  "userdoc": {
    "methods": {
      "delegate(address)": {
        "notice": "Delegate your vote to the voter `to`.************ Permet la procuration à un autre votant"
      },
      "giveRightToVote(address)": {
        "notice": "Give 'voter' the right to vote on this ballot May only be called by 'chairperson'************ Donne à un vote le droit de vote sur ce scrutin Peut être appelé que par une personne physique?"
      },
      "vote(uint256)": {
        "notice": "Give your vote (including votes delegated to you) to proposal `proposals[proposal].name`."
      }
    }
  }
}